:1000000045C0000053C0000051C000004FC00000B8
:100010004DC000004BC0000049C0000047C00000B8
:1000200045C0000043C0000041C000003FC00000C8
:100030003DC0000081C1000039C0000037C0000091
:1000400035C0000033C0000031C000009FC1000077
:100050002DC000002BC0000029C0000027C00000F8
:1000600025C0000023C0000021C000001FC0000008
:100070001DC000001BC0000019C0000017C0000018
:1000800015C0000013C0000011C0000011241FBEE5
:10009000CFEFD0E4DEBFCDBF21E0A0E0B1E001C0F2
:1000A0001D92A730B207E1F730D11DC4A9CFCF937D
:1000B000DF931F92CDB7DEB7F8941982EAE7F0E03C
:1000C00080818064808380917A0086FDFCCF789463
:1000D0008091790089830F90DF91CF910895CF931C
:1000E000DF9300D000D0CDB7DEB7BC01990F880BED
:1000F000990BE3D223E333E343EA50E46AD320E0ED
:1001000030EC4FE754E43ED269837A838B839C833F
:1001100069817A818B819C810F900F900F900F9055
:10012000DF91CF910895CF93DF93CDB7DEB760977E
:100130000FB6F894DEBF0FBECDBF40E050E01AC04E
:1001400067E070E0641B750B282F30E002C0359526
:1001500027956A95E2F721703327FA01EE0FFF1F0A
:1001600061E070E06C0F7D1FE60FF71F3183208385
:100170004F5F5F4F483051051CF320E030E080E0D6
:1001800090E018C0F901EE0FFF1F41E050E04C0F66
:100190005D1FE40FF51F4081518169E070E0621B33
:1001A000730B02C0440F551F6A95E2F7840F951F29
:1001B0002F5F3F4F283031052CF360960FB6F8942F
:1001C000DEBF0FBECDBFDF91CF910895CF93DF93F8
:1001D00000D000D01F92CDB7DEB769DF8983898157
:1001E000A2DF9B838A838A819B8179DF33D27D83DF
:1001F0006C838C819D8104971CF081E090E002C0AB
:1002000080E090E00F900F900F900F900F90DF9193
:10021000CF910895883522E0920714F5863D21E0BC
:1002200092070CF5863821E0920704F5833321E02C
:100230009207FCF48F3F910509F0F4F4813E91059B
:10024000F4F4883C9105F4F4833A9105F4F485388C
:100250009105F4F480379105F4F086E490E0089578
:100260008AE090E008958FE090E0089584E190E0C6
:10027000089589E190E008958EE190E0089583E289
:1002800090E0089588E290E0089582E390E0089578
:100290008CE390E0089580E590E0089586E28093F5
:1002A0007C0087E880937A00089587E280937C0041
:1002B00087E880937A00089581B18F6181B985E2E2
:1002C00080937C0087E880937A000895E9E6F0E067
:1002D0008081836080838DB381608DBB089580E4CD
:1002E00084B980EC8CBD089588E08093810082E021
:1002F00080936F00109285001092840083EC99E047
:1003000090938900809388000895109202011092C2
:100310000101109200011092040110920301D6DF36
:10032000DEDFE2DF7894BADFEAD080930201C4DF37
:1003300071D080930001F7CF1F920F920FB60F92EA
:1003400011240BB60F922F933F934F935F936F93AC
:100350007F938F939F93AF93BF93EF93FF93A5DF0B
:10036000ECD080930101FF91EF91BF91AF919F91EC
:100370008F917F916F915F914F913F912F910F904E
:100380000BBE0F900FBE0F901F9018951F920F92EB
:100390000FB60F9211240BB60F928F93EF93FF932A
:1003A000CF93DF931F92CDB7DEB78EB58983898156
:1003B000811104C0809102018EBD1FC089818130EE
:1003C00021F4809100018EBD18C08981823021F412
:1003D000809101018EBD11C08981843031F4E1E842
:1003E000F0E080818360808308C08981853029F4B2
:1003F000E1E8F0E080818D7F80830F90DF91CF91E5
:10040000FF91EF918F910F900BBE0F900FBE0F9049
:100410001F9018950F931F93CF93DF93CDB7DEB73F
:100420002E970FB6F894DEBF0FBECDBF1A821C8286
:100430001B821E821D8218861F821A8619861C86C0
:100440001B861E861D8600E010E039C082B1807FC9
:1004500082B982B1802B82B982B1806182B9B6DE65
:100460008A8382B18F7E82B92A818B819C81820F9F
:10047000911D9C838B8398012F5F3F4F8A81829FC0
:10048000A001839F500D11248D819E81840F951FA3
:100490009E838D830115110539F48A81813021F401
:1004A00081E090E098878F830A30110539F48A81C2
:1004B000813021F481E090E09A87898789010B30AF
:1004C000110524F28D819E816B817C81E5D17C8731
:1004D0006B872B853C8586E090E0821B930B9E8783
:1004E0008D878D859E8589832E960FB6F894DEBF05
:1004F0000FBECDBFDF91CF911F910F910895CF9384
:10050000DF9300D000D000D0CDB7DEB7D0DD8A8336
:100510008A8109DE9C838B838B819C817BDE9E8319
:100520008D838D819E81898326960FB6F894DEBFD8
:100530000FBECDBFDF91CF910895CF93DF9300D051
:1005400000D0CDB7DEB7B3DD89838981ECDD9B8335
:100550008A832A813B818091050190910601820F57
:10056000931F90930601809305018091050190915E
:1005700006018C838C810F900F900F900F90DF916C
:10058000CF9108950CD0EBC0E3D040F0DAD030F03A
:1005900021F45F3F19F0CCC0511115C1CFC0F0D08C
:1005A00098F39923C9F35523B1F3951B550BBB273A
:1005B000AA2762177307840738F09F5F5F4F220FE7
:1005C000331F441FAA1FA9F333D00E2E3AF0E0E8E0
:1005D00030D091505040E695001CCAF729D0FE2F2C
:1005E00027D0660F771F881FBB1F261737074807BE
:1005F000AB07B0E809F0BB0B802DBF01FF27935874
:100600005F4F2AF09E3F510568F092C0DCC05F3F0B
:10061000ECF3983EDCF3869577956795B795F7955B
:100620009F5FC9F7880F911D9695879597F9089553
:10063000E1E0660F771F881FBB1F621773078407EF
:10064000BA0720F0621B730B840BBA0BEE1F88F7FE
:10065000E095089504D06894B111B5C0089598D07C
:1006600088F09F5790F0B92F9927B751A0F0D1F09B
:10067000660F771F881F991F1AF0BA95C9F712C025
:10068000B13081F09FD0B1E008959CC0672F782FE2
:100690008827B85F39F0B93FCCF386957795679591
:1006A000B395D9F73EF490958095709561957F4FFD
:1006B0008F4F9F4F0895E89409C097FB3EF49095A3
:1006C0008095709561957F4F8F4F9F4F9923A9F02B
:1006D000F92F96E9BB279395F695879577956795BA
:1006E000B795F111F8CFFAF4BB0F11F460FF1BC0FE
:1006F0006F5F7F4F8F4F9F4F16C0882311F096E991
:1007000011C0772321F09EE8872F762F05C066233E
:1007100071F096E8862F70E060E02AF09A95660FF7
:10072000771F881FDAF7880F9695879597F90895B0
:1007300097F99F6780E870E060E008959FEF80EC94
:10074000089500240A941616170618060906089537
:1007500000240A9412161306140605060895092E9D
:100760000394000C11F4882352F0BB0F40F4BF2B0C
:1007700011F460FF04C06F5F7F4F8F4F9F4F08954C
:1007800057FD9058440F551F59F05F3F71F0479542
:10079000880F97FB991F61F09F3F79F08795089527
:1007A000121613061406551FF2CF4695F1DF08C046
:1007B000161617061806991FF1CF86957105610563
:1007C00008940895E894BB2766277727CB0197F90B
:1007D00008950BD0C4CFB5DF28F0BADF18F0952309
:1007E00009F0A6CFABCF1124EECFCADFA0F3959FBF
:1007F000D1F3950F50E0551F629FF001729FBB2708
:10080000F00DB11D639FAA27F00DB11DAA1F649FB3
:100810006627B00DA11D661F829F2227B00DA11D66
:10082000621F739FB00DA11D621F839FA00D611DEC
:10083000221F749F3327A00D611D231F849F600D0D
:10084000211D822F762F6A2F11249F5750408AF046
:10085000E1F088234AF0EE0FFF1FBB1F661F771FD2
:10086000881F91505040A9F79E3F510570F060CF0E
:10087000AACF5F3FECF3983EDCF3869577956795BA
:10088000B795F795E7959F5FC1F7FE2B880F911DF0
:100890009695879597F9089597FB072E16F400947F
:1008A00006D077FD08D00BD007FC05D03EF490951C
:1008B00081959F4F0895709561957F4F0895AA1B6C
:1008C000BB1B51E107C0AA1FBB1FA617B70710F03B
:1008D000A61BB70B881F991F5A95A9F7809590956D
:0A08E000BC01CD010895F894FFCF8C
:00000001FF
