:1000000045C0000060C000005EC000005CC0000091
:100010005AC0000058C0000056C0000054C0000084
:1000200052C0000050C000004EC000004CC0000094
:100030004AC0000027C2000046C0000044C00000C3
:1000400042C0000040C000003EC0000045C20000A9
:100050003AC0000038C0000036C0000034C00000C4
:1000600032C0000030C000002EC000002CC00000D4
:100070002AC0000028C0000026C0000024C00000E4
:1000800022C0000020C000001EC0000011241FBEBE
:10009000CFEFD0E4DEBFCDBF11E0A0E0B1E0E8E5F6
:1000A000FBE000E00BBF02C007900D92AA35B1073C
:1000B000D9F721E0AAE5B1E001C01D92A136B2074F
:1000C000E1F7C9D147C59CCFCF93DF931F92CDB73E
:1000D000DEB7F8941982EAE7F0E0808180648083DB
:1000E00080917A0086FDFCCF789480917900898395
:1000F0000F90DF91CF910895CF93DF9300D000D080
:10010000CDB7DEB7BC01990F880B990BE5D323E37C
:1001100033E343EA50E494D420E030EC4FE754E476
:1001200040D369837A838B839C8369817A818B81B5
:100130009C810F900F900F900F90DF91CF910895B9
:10014000CF93DF93CDB7DEB760970FB6F894DEBFDD
:100150000FBECDBF40E050E01AC067E070E0641B06
:10016000750B282F30E002C0359527956A95E2F788
:1001700021703327FA01EE0FFF1F61E070E06C0F72
:100180007D1FE60FF71F318320834F5F5F4F48309D
:1001900051051CF320E030E080E090E018C0F90148
:1001A000EE0FFF1F41E050E04C0F5D1FE40FF51F05
:1001B0004081518169E070E0621B730B02C0440F03
:1001C000551F6A95E2F7840F951F2F5F3F4F283028
:1001D00031052CF360960FB6F894DEBF0FBECDBF8D
:1001E000DF91CF910895CF93DF9300D000D01F927D
:1001F000CDB7DEB769DF89838981A2DF9B838A83DC
:100200008A819B8179DF35D37D836C838C819D814D
:1002100004971CF081E090E002C080E090E00F9035
:100220000F900F900F900F90DF91CF9108952F9224
:100230003F924F925F926F927F928F929F92AF9276
:10024000BF92CF92DF92EF92FF920F931F93CF93C3
:10025000DF93CDB7DEB7CA55D1090FB6F894DEBF2C
:100260000FBECDBF2EE1E0E0F1E0DE01119601907E
:100270000D922A95E1F72CE3EEE1F1E0DE015F96C5
:1002800001900D922A95E1F737DF4B015C0100E008
:1002900010E073C0F801EE0FFF1FEE0FFF1F81E0AB
:1002A00090E08C0F9D1FE80FF91FC68CD78CE0A043
:1002B000F1A0A7019601C501B4016FD218160CF484
:1002C0005AC018019FEF291A390AF101EE0FFF1FDA
:1002D000EE0FFF1F81E090E08C0F9D1FE80FF91FCC
:1002E000468C578C60A071A0A3019201C501B40196
:1002F000A3D388230CF43FC0000F111FE1E0F0E00E
:10030000EC0FFD1FE00FF11F00811181A701960185
:10031000C501B401DDD14B015C01220C331CE1E0CD
:10032000F0E0EC0FFD1FE20DF31D60817181601B99
:10033000710B072E000C880B990BCED2A5019401EE
:100340007FD34B015C01A7019601C301B201C0D16B
:100350009B01AC01C501B40124D26B017C01B80141
:10036000110F880B990BB8D2A7019601B2D181D297
:10037000262F972F1EC00F5F1F4F0E3011050CF454
:1003800089CF23E333E343E150E4C501B40154D3FF
:10039000181654F02DEC3CEC4CEC5EE3C501B401B6
:1003A000FCD1882324F006C02AE090E002C020E5BA
:1003B00090E0822FC65ADF4F0FB6F894DEBF0FBE13
:1003C000CDBFDF91CF911F910F91FF90EF90DF9004
:1003D000CF90BF90AF909F908F907F906F905F90E5
:1003E0004F903F902F90089586E280937C0087E89D
:1003F00080937A00089587E280937C0087E8809359
:100400007A00089581B18F6181B985E280937C0083
:1004100087E880937A000895E9E6F0E080818360C0
:1004200080838DB381608DBB089580E484B980ECB6
:100430008CBD089588E08093810082E080936F00F6
:10044000109285001092840083EC99E090938900CB
:1004500080938800089510925C0110925B011092C5
:100460005A0110925E0110925D01D6DFDEDFE2DFFD
:100470007894BADFEAD080935C01C4DF71D08093B6
:100480005A01F7CF1F920F920FB60F9211240BB69D
:100490000F922F933F934F935F936F937F938F931D
:1004A0009F93AF93BF93EF93FF93A5DFECD080931F
:1004B0005B01FF91EF91BF91AF919F918F917F91E0
:1004C0006F915F914F913F912F910F900BBE0F90C5
:1004D0000FBE0F901F9018951F920F920FB60F929C
:1004E00011240BB60F928F93EF93FF93CF93DF936B
:1004F0001F92CDB7DEB78EB589838981811104C083
:1005000080915C018EBD1FC08981813021F4809172
:100510005A018EBD18C08981823021F480915B011F
:100520008EBD11C08981843031F4E1E8F0E0808132
:100530008360808308C08981853029F4E1E8F0E098
:1005400080818D7F80830F90DF91CF91FF91EF911C
:100550008F910F900BBE0F900FBE0F901F901895AC
:100560000F931F93CF93DF93CDB7DEB72E970FB6C0
:10057000F894DEBF0FBECDBF1A821C821B821E8282
:100580001D8218861F821A8619861C861B861E8667
:100590001D8600E010E039C082B1807F82B982B14F
:1005A000802B82B982B1806182B91DDE8A8382B1DB
:1005B0008F7E82B92A818B819C81820F911D9C83C1
:1005C0008B8398012F5F3F4F8A81829FA001839F79
:1005D000500D11248D819E81840F951F9E838D83E4
:1005E0000115110539F48A81813021F481E090E010
:1005F00098878F830A30110539F48A81813021F47C
:1006000081E090E09A87898789010B30110524F2F7
:100610008D819E816B817C8176D27C876B872B85D7
:100620003C8586E090E0821B930B9E878D878D85AD
:100630009E8589832E960FB6F894DEBF0FBECDBF80
:10064000DF91CF911F910F910895CF93DF9300D049
:1006500000D000D0CDB7DEB737DD8A838A8170DD68
:100660009C838B838B819C81E2DD9E838D838D8136
:100670009E81898326960FB6F894DEBF0FBECDBF4C
:10068000DF91CF910895CF93DF9300D000D0CDB705
:10069000DEB71ADD8983898153DD9B838A832A81B2
:1006A0003B8180915F0190916001820F931F909335
:1006B000600180935F0180915F01909160018C8364
:1006C0008C810F900F900F900F90DF91CF91089534
:1006D0005058BB27AA270ED075C166D130F06BD118
:1006E00020F031F49F3F11F41EF45BC10EF4E0954D
:1006F000E7FB51C1E92F77D180F3BA17620773077F
:100700008407950718F071F49EF58FC10EF4E095FB
:100710000B2EBA2FA02D0B01B90190010C01CA01BB
:10072000A0011124FF27591B99F0593F50F4503E66
:1007300068F11A16F040A22F232F342F4427585F58
:10074000F3CF469537952795A795F0405395C9F770
:100750007EF41F16BA0B620B730B840BBAF0915028
:10076000A1F0FF0FBB1F661F771F881FC2F70EC0C7
:10077000BA0F621F731F841F48F48795779567959A
:10078000B795F7959E3F08F0B3CF9395880F08F083
:100790009927EE0F979587950895D9D008F481E0B1
:1007A00008950CD00FC107D140F0FED030F021F4F5
:1007B0005F3F19F0F0C0511139C1F3C014D198F363
:1007C0009923C9F35523B1F3951B550BBB27AA27D2
:1007D00062177307840738F09F5F5F4F220F331F44
:1007E000441FAA1FA9F333D00E2E3AF0E0E830D010
:1007F00091505040E695001CCAF729D0FE2F27D013
:10080000660F771F881FBB1F261737074807AB07E0
:10081000B0E809F0BB0B802DBF01FF2793585F4F55
:100820002AF09E3F510568F0B6C000C15F3FECF36F
:10083000983EDCF3869577956795B795F7959F5F1A
:10084000C9F7880F911D9695879597F90895E1E06E
:10085000660F771F881FBB1F621773078407BA07CD
:1008600020F0621B730B840BBA0BEE1F88F7E09528
:10087000089504D06894B111D9C00895BCD088F00F
:100880009F5790F0B92F9927B751A0F0D1F0660F7C
:10089000771F881F991F1AF0BA95C9F712C0B13097
:1008A00081F0C3D0B1E00895C0C0672F782F8827AA
:1008B000B85F39F0B93FCCF3869577956795B395D6
:1008C000D9F73EF490958095709561957F4F8F4F45
:1008D0009F4F0895E89409C097FB3EF4909580954A
:1008E000709561957F4F8F4F9F4F9923A9F0F92FF6
:1008F00096E9BB279395F695879577956795B79574
:10090000F111F8CFFAF4BB0F11F460FF1BC06F5F59
:100910007F4F8F4F9F4F16C0882311F096E911C06B
:10092000772321F09EE8872F762F05C0662371F08C
:1009300096E8862F70E060E02AF09A95660F771FA0
:10094000881FDAF7880F9695879597F90895990F7C
:100950000008550FAA0BE0E8FEEF16161706E80789
:10096000F907C0F012161306E407F50798F0621BAA
:10097000730B840B950B39F40A2661F0232B242B7F
:10098000252B21F408950A2609F4A140A6958FEF9E
:10099000811D811D089597F99F6780E870E060E0F0
:1009A00008959FEF80EC089500240A941616170608
:1009B00018060906089500240A9412161306140650
:1009C00005060895092E0394000C11F4882352F0B3
:1009D000BB0F40F4BF2B11F460FF04C06F5F7F4F6B
:1009E0008F4F9F4F089557FD9058440F551F59F052
:1009F0005F3F71F04795880F97FB991F61F09F3F0C
:100A000079F087950895121613061406551FF2CF34
:100A10004695F1DF08C0161617061806991FF1CF84
:100A200086957105610508940895E894BB276627AB
:100A30007727CB0197F908958ADF08F48FEF08959F
:100A40000BD0C0CFB1DF28F0B6DF18F0952309F046
:100A5000A2CFA7CF1124EACFC6DFA0F3959FD1F391
:100A6000950F50E0551F629FF001729FBB27F00D5C
:100A7000B11D639FAA27F00DB11DAA1F649F6627B1
:100A8000B00DA11D661F829F2227B00DA11D621F00
:100A9000739FB00DA11D621F839FA00D611D221FBA
:100AA000749F3327A00D611D231F849F600D211D9E
:100AB000822F762F6A2F11249F5750408AF0E1F041
:100AC00088234AF0EE0FFF1FBB1F661F771F881F8A
:100AD00091505040A9F79E3F510570F05CCFA6CFD2
:100AE0005F3FECF3983EDCF3869577956795B79575
:100AF000F795E7959F5FC1F7FE2B880F911D96959F
:100B0000879597F9089597FB072E16F4009406D061
:100B100077FD08D00BD007FC05D03EF49095819569
:100B20009F4F0895709561957F4F0895AA1BBB1B39
:100B300051E107C0AA1FBB1FA617B70710F0A61BDD
:100B4000B70B881F991F5A95A9F780959095BC01FE
:080B5000CD010895F894FFCFD8
:100B58000A000F00140019001E00230028002D00B1
:100B6800320037003C00410046004B005000333350
:100B780013403333D33F6666A63F48E17A3F666643
:100B8800663F9A99593F48E13A3F7B142E3F9A991C
:100B9800193F295C0F3F0000003F8FC2F53E666693
:0A0BA800E63EF628DC3ECDCCCC3E44
:00000001FF
