S00C00006D61696E2E7372656373
S113000086C00000A1C000009FC000009DC0000089
S11300109BC0000099C0000097C0000095C000007C
S113002093C0000091C000008FC000008DC000008C
S11300308BC0000089C0000087C0000085C000009C
S113004083C0000081C000007FC000007DC00000AC
S11300507BC0000079C0000077C0000075C00000BC
S113006073C0000071C000006FC000006DC00000CC
S11300706BC0000069C0000067C0000065C00000DC
S113008063C0000061C000005FC000000763423627
S1130090B79BD8A71A39685618AEBAAB558C1D3C15
S11300A0B7CC5763BD6DEDFD753EF6177231BF00D9
S11300B00000803F08000000BE922449123EABAA13
S11300C0AA2ABECDCCCC4C3E00000080BEABAAAA6E
S11300D0AA3E00000000BF000000803F00000000B6
S11300E000084178D3BB4387D1133D190E3CC3BDEF
S11300F04282AD2B3E68EC8276BED98FE1A93E4C9C
S113010080EFFFBE01C4FF7F3F0000000000112408
S11301101FBECFEFD0E4DEBFCDBF11E0A0E0B1E061
S1130120EEE7FCE000E00BBF02C007900D92A230A6
S1130130B107D9F721E0A2E0B1E001C01D92A633D6
S1130140B207E1F75FD199C55BCF9C01EAE7F0E024
S113015090819064908390917A0096FDFCCF232B3C
S113016029F08091790080930001089580917800AE
S1130170809300010895BC01990F880B990B29D332
S113018023E333E343EA50E4B0D320E030EC4FE719
S113019054E484D2EBD2709307016093060160911A
S11301A0060170910701072E000C880B990B11C3EF
S11301B0CF93DF93CDB7DEB760970FB6F894DEBF69
S11301C00FBECDBF40E050E01AC067E070E0641B92
S11301D0750B282F30E002C0359527956A95E2F714
S11301E021703327FA01EE0FFF1F61E070E06C0FFE
S11301F07D1FE60FF71F318320834F5F5F4F483029
S113020051051CF320E030E080E090E018C0F901D3
S1130210EE0FFF1F41E050E04C0F5D1FE40FF51F90
S11302204081518169E070E0621B730B02C0440F8E
S1130230551F6A95E2F7840F951F2F5F3F4F2830B3
S113024031052CF360960FB6F894DEBF0FBECDBF18
S1130250DF91CF910895CF93DF93CDB7DEB7A09709
S11302600FB6F894DEBF0FBECDBF20E030E01AC059
S11302704FE050E0421B530BBC0102C076956795DA
S11302804A95E2F7AB01F901EE0FFF1F61E070E060
S11302906C0F7D1FE60FF71F417055275183408374
S11302A02F5F3F4F203131051CF320E030E080E028
S11302B090E018C0F901EE0FFF1F41E050E04C0F31
S11302C05D1FE40FF51F4081518161E170E0621B05
S11302D0730B02C0440F551F6A95E2F7840F951FF4
S11302E02F5F3F4F203131052CF3A0960FB6F894C1
S11302F0DEBF0FBECDBFDF91CF91089581E090E0C6
S113030024DF809300018091000152DF90930B0160
S113031080930A0180910A0190910B012CDF26D26F
S1130320709309016093080180910801909109017B
S113033003971CF081E090E0089580E090E0089538
S11303401ADF23E333E343E95FE332D39B01AC01D8
S113035060E070E088ED91E4A1D108D270930501CA
S1130360609304018091040190910501089520E0B7
S113037030E013C0F901EE0FFF1FE80FF91F608191
S113038071814091020150910301460F571F509310
S11303900301409302012F5F3F4F2B30310554F38B
S11303A0809102019091030105971CF081E090E097
S11303B0089580E090E0089586E680937C0087E8C5
S11303C080937A00089587E480937C0087E8809383
S11303D07A00089581B18F6181B985E280937C00B0
S11303E087E880937A000895E9E6F0E080818360ED
S11303F080838DB381608DBB089580E484B980ECE3
S11304008CBD0895F1DFF9DF7894D6DF58D0DBDFB7
S11304107AD0E0DF01D0F9CFCF93DF9310921B01A4
S113042010921A011092170110921601C0E0D0E048
S11304302BC082B1807F82B982B18C2B82B982B108
S1130440806182B95BDF90931B0180931A0182B1B2
S11304508F7E82B980911A0190911B01FE01EE0FEB
S1130460FF1FE15EFE4F9183808320911A0130913A
S11304701B018091160190911701820F931F909395
S11304801701809316012196CB30D10594F2809107
S11304903501909136016BDF90931501809314011F
S11304A0209114013091150180911601909117014A
S11304B040E1249F800D1124DF91CF91089581E0C4
S11304C090E043DE809300018091000190E070DEB3
S11304D090931B0180931A0180911A0190911B0142
S11304E02FDF909319018093180180911801909146
S11304F019018B3F91052CF48091180190911901F9
S113050008958FEF0895CF92DF92EF92FF9281E0EA
S113051090E01BDE8093350180E090E016DE80934E
S11305201C018091350190E0982F882720911C01AF
S1130530822B90931E0180931D0180911D01909147
S11305401E0189DE90931B0180931A0180911A0188
S113055090911B0110DEBC01990F880B990B39D1C6
S11305606093100170931101809312019093130111
S11305706091100170911101809112019091130109
S113058020E030E040E250E424D06B017C01609133
S113059010017091110180911201909113019B013E
S11305A0AC0118D09B01AC01C701B60177D020E0A3
S11305B030E046E153E499D160930C0170930D014E
S11305C080930E0190930F01FF90EF90DF90CF90F6
S11305D008955058BB27AA270ED04DC13ED130F004
S11305E043D120F031F49F3F11F41EF433C10EF4D3
S11305F0E095E7FB29C1E92F4FD180F3BA176207D1
S113060073078407950718F071F49EF567C10EF41B
S1130610E0950B2EBA2FA02D0B01B90190010C010E
S1130620CA01A0011124FF27591B99F0593F50F426
S1130630503E68F11A16F040A22F232F342F44277E
S1130640585FF3CF469537952795A795F040539576
S1130650C9F77EF41F16BA0B620B730B840BBAF046
S11306609150A1F0FF0FBB1F661F771F881FC2F7B1
S11306700EC0BA0F621F731F841F48F487957795C5
S11306806795B795F7959E3F08F0B3CF9395880F7C
S113069008F09927EE0F9795879508950CD0EBC035
S11306A0E3D040F0DAD030F021F45F3F19F0CCC051
S11306B0511115C1CFC0F0D098F39923C9F3552334
S11306C0B1F3951B550BBB27AA2762177307840741
S11306D038F09F5F5F4F220F331F441FAA1FA9F3F7
S11306E033D00E2E3AF0E0E830D091505040E695E9
S11306F0001CCAF729D0FE2F27D0660F771F881F4A
S1130700BB1F261737074807AB07B0E809F0BB0B38
S1130710802DBF01FF2793585F4F2AF09E3F51055C
S113072068F092C0DCC05F3FECF3983EDCF3869542
S113073077956795B795F7959F5FC9F7880F911DD2
S11307409695879597F90895E1E0660F771F881FBE
S1130750BB1F621773078407BA0720F0621B730B71
S1130760840BBA0BEE1F88F7E095089504D06894C3
S1130770B111B5C0089598D088F09F5790F0B92F63
S11307809927B751A0F0D1F0660F771F881F991FE2
S11307901AF0BA95C9F712C0B13081F09FD0B1E018
S11307A008959CC0672F782F8827B85F39F0B93F28
S11307B0CCF3869577956795B395D9F73EF49095E4
S11307C08095709561957F4F8F4F9F4F0895E89462
S11307D009C097FB3EF490958095709561957F4F85
S11307E08F4F9F4F9923A9F0F92F96E9BB27939533
S11307F0F695879577956795B795F111F8CFFAF443
S1130800BB0F11F460FF1BC06F5F7F4F8F4F9F4F73
S113081016C0882311F096E911C0772321F09EE8D1
S1130820872F762F05C0662371F096E8862F70E037
S113083060E02AF09A95660F771F881FDAF7880F11
S11308409695879597F9089597F99F6780E870E0E2
S113085060E008959FEF80EC089500240A94161632
S1130860170618060906089500240A94121613069A
S1130870140605060895092E0394000C11F4882328
S113088052F0BB0F40F4BF2B11F460FF04C06F5F44
S11308907F4F8F4F9F4F089557FD9058440F551F1A
S11308A059F05F3F71F04795880F97FB991F61F0EE
S11308B09F3F79F087950895121613061406551F65
S11308C0F2CF4695F1DF08C0161617061806991FD1
S11308D0F1CF86957105610508940895E894BB27C6
S11308E066277727CB0197F908950BD0C4CFB5DFDE
S11308F028F0BADF18F0952309F0A6CFABCF112466
S1130900EECFCADFA0F3959FD1F3950F50E0551FAA
S1130910629FF001729FBB27F00DB11D639FAA2750
S1130920F00DB11DAA1F649F6627B00DA11D661F9F
S1130930829F2227B00DA11D621F739FB00DA11DC0
S1130940621F839FA00D611D221F749F3327A00D7A
S1130950611D231F849F600D211D822F762F6A2F16
S113096011249F5750408AF0E1F088234AF0EE0F9B
S1130970FF1FBB1F661F771F881F91505040A9F7A8
S11309809E3F510570F060CFAACF5F3FECF3983ED5
S1130990DCF3869577956795B795F795E7959F5F0F
S11309A0C1F7FE2B880F911D9695879597F90895A9
S11309B0FA01EE0FFF1F30962105310599F16115FB
S11309C0710561F48038BFE39B0749F1689490385E
S11309D0810561F08038BFEF9B0741F0992342F510
S11309E0FF3FE1053105210511F1E8940894E795ED
S11309F0D901AA2329F4AB2FBE2FF85FD0F310C07E
S1130A00FF5F70F4A695E0F7F73950F019F0FF3A5C
S1130A1038F49F779F930CD00F9007FC905808955B
S1130A203EF018CF60E070E080E89FE308954FE760
S1130A309F775F934F933F932F939ED02F913F9136
S1130A404F915F9152DF05C019F40EF0FDCE46CFF1
S1130A5001CF2ADFC8F39638C0F707F80F92E8945D
S1130A602BE33AEA48EB5FE74EDF0F920F920F92C7
S1130A704DB75EB70F92C0D0ECE8F0E016D04F91BE
S1130A805F91EF91FF91E595EE1FFF1F49F0FE572F
S1130A90E0684427EE0F441FFA95E1F74195550BA2
S1130AA032D00F9007FE26C00895DF93CF931F9393
S1130AB00F93FF92EF92DF927B018C01689405C043
S1130AC0DA2EEF011EDFFE01E894A5912591359100
S1130AD045915591AEF3EF018EDDFE019701A8011A
S1130AE0DA9479F7DF90EF90FF900F911F91CF91F7
S1130AF0DF9108959B01AC0160E070E080E89FE322
S1130B00CDCDA2CEACC0D0DEE8F39923D9F3940FB7
S1130B10511DBBF39150504094F059F0882332F0AA
S1130B20660F771F881F91505040C1F79E3F5105B3
S1130B3044F7880F911D9695879597F908955F3F1F
S1130B40ACF0983E9CF0BB27869577956795B79552
S1130B5008F4B1609395C1F7BB0F58F711F460FF27
S1130B60E8CF6F5F7F4F8F4F9F4FE3CFB8CE0EF02C
S1130B7076C070CE689468CE97DEC8F39923D1F31B
S1130B80C6F3DF93CF931F930F93FF92C92FDD27F3
S1130B9088232AF02197660F771F881FDAF720E051
S1130BA030E040E85FEB9FE3883920F0803E30F08E
S1130BB021968F770FDDE4EBF0E003C00BDDE1EE6F
S1130BC0F0E073DF8B01BE01EC01FB2E6F5771095E
S1130BD07595771F880B990BFCDD28E132E741E31B
S1130BE05FE38FDEAF2D9801AE01FF900F911F914F
S1130BF0CF91DF9100DD3FCEFA01DC01AA0FBB1FCC
S1130C009B01AC01BF5728F422273327442750788F
S1130C101FC0B75188F4AB2F00244695379527950C
S1130C20011CA395D2F3002069F0220F331F441F47
S1130C30B395DAF30DD0CDCC61307105A0E88A0705
S1130C40B94630F49B01AC01662777278827907852
S1130C50309621F0208331834283538308959F3F4C
S1130C6031F0915020F4879577956795B795880F63
S1110C70911D9695879597F90895F894FFCFF6
S1050C7EE80088
S9030000FC
