:1000000045C0000060C000005EC000005CC0000091
:100010005AC0000058C0000056C0000054C0000084
:1000200052C0000050C000004EC000004CC0000094
:100030004AC000002FC2000046C0000044C00000BB
:1000400042C0000040C000003EC000004DC20000A1
:100050003AC0000038C0000036C0000034C00000C4
:1000600032C0000030C000002EC000002CC00000D4
:100070002AC0000028C0000026C0000024C00000E4
:1000800022C0000020C000001EC0000011241FBEBE
:10009000CFEFD0E4DEBFCDBF11E0A0E0B1E0ECEEE9
:1000A000FCE000E00BBF02C007900D92AA35B1073B
:1000B000D9F721E0AAE5B1E001C01D92A836B20748
:1000C000E1F7ABD111C69CCFCF93DF931F92CDB791
:1000D000DEB7F8941982EAE7F0E0808180648083DB
:1000E00080917A0086FDFCCF789480917900898395
:1000F0000F90DF91CF910895CF93DF9300D000D080
:10010000CDB7DEB7BC01990F880B990BAFD423E3B1
:1001100033E343EA50E45ED520E030E04FE753E4B8
:100120000AD469837A838B839C8369817A818B81EA
:100130009C810F900F900F900F90DF91CF910895B9
:100140000F931F93CF93DF9300D01F92CDB7DEB7ED
:100150008C01BADF8983898190E0CEDF54D47B8320
:100160006A838A819B81801791071CF081E090E06F
:1001700002C080E090E00F900F900F90DF91CF9140
:100180001F910F9108952F923F924F925F926F921D
:100190007F928F929F92AF92BF92CF92DF92EF9217
:1001A000FF920F931F93CF93DF93CDB7DEB7CA555E
:1001B000D1090FB6F894DEBF0FBECDBF2EE1E0E04F
:1001C000F1E0DE01119601900D922A95E1F72CE302
:1001D000EEE1F1E0DE015F9601900D922A95E1F7E4
:1001E0008BDF4B015C0100E010E073C0F801EE0F03
:1001F000FF1FEE0FFF1F81E090E08C0F9D1FE80FA7
:10020000F91FC68CD78CE0A0F1A0A7019601C5010B
:10021000B4018DD318160CF45AC018019FEF291A97
:10022000390AF101EE0FFF1FEE0FFF1F81E090E092
:100230008C0F9D1FE80FF91F468C578C60A071A092
:10024000A3019201C501B401C1D488230CF43FC0BD
:10025000000F111FE1E0F0E0EC0FFD1FE00FF11FB8
:1002600000811181A7019601C501B401FBD24B01A8
:100270005C01220C331CE1E0F0E0EC0FFD1FE20D0D
:10028000F31D60817181601B710B072E000C880BC0
:10029000990BECD3A50194019DD44B015C01A701FE
:1002A0009601C301B201DED29B01AC01C501B401CC
:1002B00042D36B017C01B801110F880B990BD6D387
:1002C000A7019601D0D29FD3262F972F1EC00F5F74
:1002D0001F4F0E3011050CF489CF23E333E343E1C4
:1002E00050E4C501B40172D4181654F02DEC3CEC66
:1002F0004CEC5EE3C501B4011AD3882324F006C098
:100300002AE090E002C020E590E0822FC65ADF4F3D
:100310000FB6F894DEBF0FBECDBFDF91CF911F9116
:100320000F91FF90EF90DF90CF90BF90AF909F9094
:100330008F907F906F905F904F903F902F90089597
:1003400086E280937C0087E880937A00089587E2B4
:1003500080937C0087E880937A00089581B18F6054
:1003600081B98AB180628AB985E280937C0087E88E
:1003700080937A0008958AB18F618AB984E280936C
:100380007C0087E880937A00089580E484B980EC4B
:100390008CBD089588E08093810082E080936F0097
:1003A000109285001092840083EC99E0909389006C
:1003B000809388000895CF93DF931F92CDB7DEB767
:1003C00082B1807F82B982B1826082B982B180615C
:1003D00082B983E090E0B4DE8AE68A95F1F700C046
:1003E00073DE898382B18F7E82B98981883C48F42B
:1003F00089818C3848F48981843648F082E090E025
:1004000008C084E090E005C083E090E002C081E095
:1004100090E00F90DF91CF910895109261011092BA
:100420005F0110925E0110925B01109260011092C8
:100430005A0183E090E090935D0180935C01E1E8D4
:10044000F0E080818D7F808308D29FDFA3DF7894E6
:1004500077DFA0D18093610181DF80915C01909171
:100460005D01B2D0809360018091600186FB880FAE
:10047000880B80F980935A01809160018F7380937B
:100480005E0179DF80915C0190915D0121D18093C3
:100490005B01DECF1F920F920FB60F9211240BB6A5
:1004A0000F922F933F934F935F936F937F938F930D
:1004B0009F93AF93BF93EF93FF9349DF80D18093D6
:1004C0005F01FF91EF91BF91AF919F918F917F91CC
:1004D0006F915F914F913F912F910F900BBE0F90B5
:1004E0000FBE0F901F9018951F920F920FB60F928C
:1004F00011240BB60F922F933F934F935F936F93FB
:100500007F938F939F93AF93BF93EF93FF93CF937B
:10051000DF931F92CDB7DEB78EB5898389818111B4
:1005200004C0809161018EBD39C08981813021F480
:1005300080915E018EBD32C08981823021F480912C
:100540005B018EBD2BC08981833031F4E1E8F0E09E
:1005500080818360808322C08981843049F4F8944B
:10056000E1E8F0E080818D7F808377D1789416C0B8
:100570008981853021F480915F018EBD0FC0898112
:10058000863021F480915A018EBD08C08981873060
:1005900029F411DF90935D0180935C010F90DF914E
:1005A000CF91FF91EF91BF91AF919F918F917F91EB
:1005B0006F915F914F913F912F910F900BBE0F90D4
:1005C0000FBE0F901F901895EF92FF920F931F93FD
:1005D000CF93DF93CDB7DEB72C970FB6F894DEBF7D
:1005E0000FBECDBF7C011A821C821B821E821D821F
:1005F00018861F821A8619861C861B8601E010E069
:1006000038C082B1807F82B982B1802B82B98BB130
:1006100080628BB9C70194DD8A838BB18F7D8BB9E2
:100620002A818B819C81820F911D9C838B838A817F
:10063000809F9001819F300D11248D819E81820FBA
:10064000931F9E838D830130110539F48A81813097
:1006500021F481E090E098878F830B30110539F405
:100660008A81813021F481E090E09A8789870F5F49
:100670001F4F0C3011052CF28B819C81892B29F4A2
:100680008CE090E09C878B8709C08D819E81880FCC
:10069000991F6B817C8101D37C876B878B859C85BF
:1006A00029853A854F815885440F240F30E4239FD4
:1006B000800D112489832C960FB6F894DEBF0FBEEF
:1006C000CDBFDF91CF911F910F91FF90EF900895D3
:1006D000EF92FF920F931F93CF93DF93CDB7DEB7C7
:1006E00028970FB6F894DEBF0FBECDBF7C011A82EB
:1006F0001C821B821E821D8218861F8201E010E070
:1007000024C08BB1807F8BB98BB1802B8BB98BB11F
:1007100080618BB9C70114DD8A838BB18F7E8BB961
:100720002A818B819C81820F911D9C838B838A817E
:10073000809F9001819F300D11248D819E81820FB9
:10074000931F9E838D830F5F1F4F0C301105CCF2DA
:100750008B819C81892B29F48CE090E098878F8392
:1007600009C08D819E81880F991F6B817C8195D2F4
:1007700078876F838F819885898328960FB6F89440
:10078000DEBF0FBECDBFDF91CF911F910F91FF90C4
:10079000EF900895CF93DF9300D01F92CDB7DEB7CF
:1007A00093DC8983898190E0EEDC9B838A838A8154
:1007B0009B810F900F900F90DF91CF910895CF9371
:1007C000DF9300D000D0CDB7DEB77EDC8C578983B5
:1007D0008981082E000C990B9C01220F331F220FD8
:1007E000331F220F331F820F931F2091640130911A
:1007F0006501820F931F909365018093640180913E
:1008000064019091650164E670E047D270936701DE
:100810006093660180916601909167018D37910523
:1008200024F08FE78C838C8111C0809166019091B8
:10083000670184389F4F24F480E88B838B8106C046
:1008400080916601909167018A838A810F900F9051
:100850000F900F90DF91CF91089510926501109243
:10086000640108955058BB27AA270ED075C166D1E0
:1008700030F06BD120F031F49F3F11F41EF45BC1D6
:100880000EF4E095E7FB51C1E92F77D180F3BA1759
:10089000620773078407950718F071F49EF58FC1FE
:1008A0000EF4E0950B2EBA2FA02D0B01B90190018B
:1008B0000C01CA01A0011124FF27591B99F0593FCF
:1008C00050F4503E68F11A16F040A22F232F342F17
:1008D0004427585FF3CF469537952795A795F04065
:1008E0005395C9F77EF41F16BA0B620B730B840B7A
:1008F000BAF09150A1F0FF0FBB1F661F771F881F32
:10090000C2F70EC0BA0F621F731F841F48F4879589
:1009100077956795B795F7959E3F08F0B3CF939578
:10092000880F08F09927EE0F979587950895D9D0ED
:1009300008F481E008950CD00FC107D140F0FED03B
:1009400030F021F45F3F19F0F0C0511139C1F3C00C
:1009500014D198F39923C9F35523B1F3951B550B83
:10096000BB27AA2762177307840738F09F5F5F4F82
:10097000220F331F441FAA1FA9F333D00E2E3AF0C3
:10098000E0E830D091505040E695001CCAF729D0DD
:10099000FE2F27D0660F771F881FBB1F261737072C
:1009A0004807AB07B0E809F0BB0B802DBF01FF275C
:1009B00093585F4F2AF09E3F510568F0B6C000C1C2
:1009C0005F3FECF3983EDCF3869577956795B79596
:1009D000F7959F5FC9F7880F911D9695879597F9B1
:1009E0000895E1E0660F771F881FBB1F621773072A
:1009F0008407BA0720F0621B730B840BBA0BEE1F3F
:100A000088F7E095089504D06894B111D9C008958D
:100A1000BCD088F09F5790F0B92F9927B751A0F01C
:100A2000D1F0660F771F881F991F1AF0BA95C9F782
:100A300012C0B13081F0C3D0B1E00895C0C0672FBB
:100A4000782F8827B85F39F0B93FCCF38695779532
:100A50006795B395D9F73EF490958095709561951B
:100A60007F4F8F4F9F4F0895E89409C097FB3EF446
:100A700090958095709561957F4F8F4F9F4F9923EB
:100A8000A9F0F92F96E9BB279395F6958795779569
:100A90006795B795F111F8CFFAF4BB0F11F460FF29
:100AA0001BC06F5F7F4F8F4F9F4F16C0882311F081
:100AB00096E911C0772321F09EE8872F762F05C095
:100AC000662371F096E8862F70E060E02AF09A9530
:100AD000660F771F881FDAF7880F9695879597F925
:100AE0000895990F0008550FAA0BE0E8FEEF1616BF
:100AF0001706E807F907C0F012161306E407F50712
:100B000098F0621B730B840B950B39F40A2661F085
:100B1000232B242B252B21F408950A2609F4A14028
:100B2000A6958FEF811D811D089597F99F6780E835
:100B300070E060E008959FEF80EC089500240A942F
:100B40001616170618060906089500240A941216A8
:100B50001306140605060895092E0394000C11F4DB
:100B6000882352F0BB0F40F4BF2B11F460FF04C088
:100B70006F5F7F4F8F4F9F4F089557FD9058440FE1
:100B8000551F59F05F3F71F04795880F97FB991FEC
:100B900061F09F3F79F087950895121613061406A9
:100BA000551FF2CF4695F1DF08C016161706180636
:100BB000991FF1CF86957105610508940895E89411
:100BC000BB2766277727CB0197F908958ADF08F4BA
:100BD0008FEF08950BD0C0CFB1DF28F0B6DF18F04B
:100BE000952309F0A2CFA7CF1124EACFC6DFA0F347
:100BF000959FD1F3950F50E0551F629FF001729FB2
:100C0000BB27F00DB11D639FAA27F00DB11DAA1FD0
:100C1000649F6627B00DA11D661F829F2227B00D1D
:100C2000A11D621F739FB00DA11D621F839FA00DA8
:100C3000611D221F749F3327A00D611D231F849FF8
:100C4000600D211D822F762F6A2F11249F5750404F
:100C50008AF0E1F088234AF0EE0FFF1FBB1F661FEA
:100C6000771F881F91505040A9F79E3F510570F0A3
:100C70005CCFA6CF5F3FECF3983EDCF3869577958B
:100C80006795B795F795E7959F5FC1F7FE2B880F9E
:100C9000911D9695879597F9089597FB072E16F461
:100CA000009406D077FD08D00BD007FC05D03EF4A9
:100CB000909581959F4F0895709561957F4F089508
:100CC000AA1BBB1B51E107C0AA1FBB1FA617B70772
:100CD00010F0A61BB70B881F991F5A95A9F780958E
:0C0CE0009095BC01CD010895F894FFCF61
:100CEC000A000F00140019001E00230028002D001C
:100CFC00320037003C00410046004B0050003333BB
:100D0C0013403333D33F6666A63F48E17A3F6666AD
:100D1C00663F9A99593F48E13A3F7B142E3F9A9986
:100D2C00193F295C0F3F0000003F8FC2F53E6666FD
:0A0D3C00E63EF628DC3ECDCCCC3EAE
:00000001FF
