:1000000045C0000060C000005EC000005CC0000091
:100010005AC0000058C0000056C0000054C0000084
:1000200052C0000050C000004EC000004CC0000094
:100030004AC0000048C0000046C0000044C00000A4
:1000400042C0000040C000003EC00000DCC3000011
:100050003AC0000038C0000036C0000034C00000C4
:1000600032C0000030C000002EC000002CC00000D4
:100070002AC0000028C0000026C0000024C00000E4
:1000800022C0000020C000001EC0000011241FBEBE
:10009000CFEFD0E4DEBFCDBF11E0A0E0B1E0E0E9FA
:1000A000FFE000E00BBF02C007900D92AA30B1073D
:1000B000D9F721E0AAE0B1E001C01D92A831B20752
:1000C000E1F746D463C79CCF1092C5008093C4006B
:1000D00088E18093C10086E08093C2000895E0EB40
:1000E000F0E08081836A8083E1EBF0E080818260D0
:1000F00080838081826080831092B3001092B4006C
:10010000089580E484B980EC8CBD789408958F9232
:100110009F92AF92BF92CF92DF92EF92FF92CF93D6
:100120006B017C0188E082B982E8809308016091CC
:10013000080170E080E090E012D6A701960111D589
:1001400020E030E04FE753E470D588230CF049C03D
:100150006091080170E080E090E001D6A70196016F
:1001600000D520E030E0A901AAD618160CF039C05D
:1001700020E030E0A901C701B601A1D618166CF441
:100180006091080170E080E090E0E9D5A701960158
:10019000E8D4B7D56093B30049C020E030E0A901AE
:1001A000C701B60142D58823BCF4C091080120E004
:1001B00030E040E05FE3C701B60185D64B015C014A
:1001C0006C2F70E080E090E0CAD5A5019401C9D4FD
:1001D00098D56093B3002AC0809108018093B30042
:1001E00025C06091080170E080E090E0B8D5A701DB
:1001F0009601B7D420E030E04EE753E460D61816FD
:1002000024F48EEF8093B30011C06091080170E078
:1002100080E090E0A4D5A7019601A3D420E030E0CF
:10022000A90103D5882314F41092B300609108014A
:1002300070E080E090E093D5A701960191D420E092
:1002400030E04FE753E4F1D488230CF049C06091CB
:10025000080170E080E090E082D5A701960180D48B
:1002600020E030E0A9012BD618160CF039C020E0B0
:1002700030E0A901C701B601D8D488236CF460919D
:10028000080170E080E090E06AD5A701960168D48B
:1002900038D56093B40049C020E030E0A901C7011F
:1002A000B6010DD61816BCF4C091080120E030E06C
:1002B00040E05FE3C701B60106D66B017C016C2FFD
:1002C00070E080E090E04BD5A701960149D419D5A4
:1002D0006093B4002AC0809108018093B40025C0C7
:1002E0006091080170E080E090E039D5A7019601A7
:1002F00037D420E030E04EE753E4E1D5181624F47B
:100300008EEF8093B40011C06091080170E080E02E
:1003100090E025D5A701960123D420E030E0A90183
:1003200084D4882314F41092B400CF91FF90EF90FE
:10033000DF90CF90BF90AF909F908F9008958AE507
:100340008093080188E082B9809108018093B3000E
:10035000809108018093B400089582E88093080199
:1003600088E082B9809108018093B30080910801F0
:100370001092B400089582E88093080188E082B961
:10038000809108011092B300809108018093B4001D
:1003900008958AE58093080182E082B9809108017E
:1003A0008093B300809108018093B400089582E89F
:1003B0008093080112B8809108018093B300809166
:1003C00008018093B400089582E8809308018AE0D0
:1003D00082B9809108018093B300809108018093D5
:1003E000B40008951092B3001092B4000895809163
:1003F0000801883728F480910801885D80930801FE
:10040000089580910801893228F08091080188526E
:10041000809308010895AC018BB184608BB920E012
:1004200030E00CC09091C00095FFFCCFFA01E20FC4
:10043000F31F90819093C6002F5F3F4F2617370719
:1004400088F38091C00086FFFCCFE0ECF0E0808173
:10045000806480830895AC0120E030E00CC090916E
:10046000C0009923E4F7FA01E20FF31F9091C60050
:1004700090832F5F3F4F2617370788F38BB1846037
:100480008BB90895CF93DF93CDB7DEB729970FB619
:10049000F894DEBF0FBECDBF472F50E09C012A5D10
:1004A0003F4F260F311D240F351F209530959FEFAC
:1004B00099839A838B8385E08C8383E08D838EE19F
:1004C0008E836F837887298769E070E0CE0101967B
:1004D000A2DF29960FB6F894DEBF0FBECDBFDF9125
:1004E000CF910895CF93DF93CDB7DEB729970FB69D
:1004F000F894DEBF0FBECDBF472F50E09C01295DB1
:100500003F4F260F311D240F351F209530959FEF4B
:1005100099839A838B8385E08C8384E08D838EE13D
:100520008E836F837887298769E070E0CE0101961A
:1005300072DF29960FB6F894DEBF0FBECDBFDF91F4
:10054000CF910895CF93DF93CDB7DEB729970FB63C
:10055000F894DEBF0FBECDBF472F50E09C01285D51
:100560003F4F260F311D240F351F209530959FEFEB
:1005700099839A838B8385E08C8383E08D8380E2EB
:100580008E836F837887298769E070E0CE010196BA
:1005900042DF29960FB6F894DEBF0FBECDBFDF91C4
:1005A000CF910895CF93DF93CDB7DEB764970FB6A1
:1005B000F894DEBF0FBECDBF9C01245D3F4F209558
:1005C00030959FEF99839A838B8384E08C8382E0BC
:1005D0008D8394E29E838F83288768E070E0CE014C
:1005E000019619DF8BB18B7F8BB9CE01099628E07C
:1005F000FC0111922A95E9F768E070E02CDF2E8566
:100600008F8590E0982F8827820F911DA0E0B0E0A1
:10061000898B9A8BAB8BBC8B89899A89AB89BC8976
:1006200064960FB6F894DEBF0FBECDBFDF91CF91B9
:100630000895CF93DF9300D000D000D0CDB7DEB7C0
:100640008FEF89838A838EEF8B8382E08C8385E0B2
:100650008D838AEF8E8366E070E0CE010196DBDE4B
:1006600085E38A95F1F7000026960FB6F894DEBF71
:100670000FBECDBFDF91CF910895CF93DF93EC01F3
:1006800091DF8F3F23E0920770F460910601709133
:100690000701680F791FCE01F5DE87EC90E0019726
:1006A000F1F700C00000DF91CF910895CF93DF9361
:1006B000EC0178DF009749F02091060130910701A5
:1006C000BC01621B730BCE01DDDEDF91CF9108957B
:1006D000EF92FF920F931F93CF93DF937C018B01D7
:1006E00061DFC0910601D0910701C80FD91FBE017B
:1006F000C701F8DE6FEF73E06C1B7D0BC801F2DE03
:1007000098DFDF91CF911F910F91FF90EF900895A7
:10071000EF92FF920F931F93CF93DF938C017B0196
:1007200041DF2091060130910701EC01C21BD30B80
:10073000BE01C801D7DE6FEF73E06C1B7D0BC701F4
:10074000D1DE77DFDF91CF911F910F91FF90EF9076
:1007500008958130910521F481E090E08ECF0895D5
:100760008230910531F463E070E082E090E0B0CF38
:1007700008958330910531F465E070E084E090E005
:10078000A7CF08958430910521F486E090E075CFDD
:1007900008958530910521F487E090E06ECF0895AB
:1007A000069719F488E090E068CF089581309105AC
:1007B00021F481E090E07ACF08958230910531F400
:1007C00063E070E082E090E0A3CF0895833091056C
:1007D00031F465E070E084E090E09ACF08958430D1
:1007E000910521F486E090E061CF08958530910570
:1007F00021F487E090E05ACF0895069719F488E035
:1008000090E054CF08951F920F920FB60F921124CB
:100810000BB60F922F933F934F935F936F937F93FA
:100820008F939F93AF93BF93EF93FF939EB5809168
:100830001701823019F128F4882349F08130C1F082
:1008400072C0833009F1843009F464C06CC0903305
:1008500031F481E08093170190930F0166C09032CC
:1008600021F484E08093170160C090930F015DC074
:100870009093140182E08093170157C09093160162
:1008800083E08093170151C090931501F894609113
:10089000160170E0762F662780911501682B072ED0
:1008A000000C880B990B5BD26093100170931101BF
:1008B00080931201909313016091100170911101C6
:1008C000809112019091130120E030E048EC52E455
:1008D000B0D1609310017093110180931201909335
:1008E0001301789480911401813089F48091100172
:1008F00090911101A0911201B0911301B058809311
:10090000100190931101A0931201B0931301109262
:1009100017010BC08EB590E0909305018093040100
:100920001092170102C010921701FF91EF91BF9131
:10093000AF919F918F917F916F915F914F913F9177
:100940002F910F900BBE0F900FBE0F901F90189518
:100950008AE081B982E082B986EC8AB980E0B4DBB2
:10096000D0DBBDDB2FEF83EC99E02150804090403D
:10097000E1F700C00000C1E0D0E005C068E270E02F
:10098000CE01E0DD2196C930D105C0F364EF71E0FE
:1009900084E090E0A7DD6BE072E085E090E0A2DD0E
:1009A00048DE80910F01813011F4C9DCD4C0809100
:1009B0000F01823011F4FBDCCEC080910F01833037
:1009C00011F4E7DCC8C080910F01843011F4FCDC25
:1009D000C2C080910F01853011F4CDDCBCC0809184
:1009E0000F01863011F4B9DCB6C080910F0181117E
:1009F00002C0F8DCB0C080910F01843141F49091C5
:100A00000F0180910E01981711F0FBDCA4C08091BA
:100A10000F01853141F490910F0180910E019817DB
:100A200011F0E5DC98C080910F01803361F4F894F7
:100A30006091100170911101809112019091130148
:100A4000789465DB88C080910F01813309F040C044
:100A500080910A0190910B01A0910C01B0910D01C0
:100A60000196A11DB11D80930A0190930B01A093E3
:100A70000C01B0930D0140910A0150910B0160915E
:100A80000C0170910D018091000190910101A091E4
:100A90000201B0910301481759076A077B0708F460
:100AA0005AC0809104019091050153DE10920A0111
:100AB00010920B0110920C0110920D012FEF80E7A4
:100AC00092E0215080409040E1F700C0000043C018
:100AD00080910F01823309F03EC080910A0190910C
:100AE0000B01A0910C01B0910D010196A11DB11D4A
:100AF00080930A0190930B01A0930C01B0930D0118
:100B000040910A0150910B0160910C0170910D010F
:100B10008091000190910101A0910201B091030127
:100B2000481759076A077B07B0F08091040190913C
:100B300005013CDE10920A0110920B0110920C018B
:100B400010920D012FEF80E792E0215080409040FD
:100B5000E1F700C0000080910F0180930E0121CFCA
:100B60005058BB27AA270ED070C161D130F066D192
:100B700020F031F49F3F11F41EF456C10EF4E095BD
:100B8000E7FB4CC1E92F72D180F3BA1762077307F4
:100B90008407950718F071F49EF58AC10EF4E0956C
:100BA0000B2EBA2FA02D0B01B90190010C01CA0127
:100BB000A0011124FF27591B99F0593F50F4503ED2
:100BC00068F11A16F040A22F232F342F4427585FC4
:100BD000F3CF469537952795A795F0405395C9F7DC
:100BE0007EF41F16BA0B620B730B840BBAF0915094
:100BF000A1F0FF0FBB1F661F771F881FC2F70EC033
:100C0000BA0F621F731F841F48F487957795679505
:100C1000B795F7959E3F08F0B3CF9395880F08F0EE
:100C20009927EE0F979587950895D4D008F481E021
:100C300008950CD00AC102D140F0F9D030F021F46F
:100C40005F3F19F0EBC0511134C1EEC00FD198F3E2
:100C50009923C9F35523B1F3951B550BBB27AA273D
:100C600062177307840738F09F5F5F4F220F331FAF
:100C7000441FAA1FA9F333D00E2E3AF0E0E830D07B
:100C800091505040E695001CCAF729D0FE2F27D07E
:100C9000660F771F881FBB1F261737074807AB074C
:100CA000B0E809F0BB0B802DBF01FF2793585F4FC1
:100CB0002AF09E3F510568F0B1C0FBC05F3FECF3E6
:100CC000983EDCF3869577956795B795F7959F5F86
:100CD000C9F7880F911D9695879597F90895E1E0DA
:100CE000660F771F881FBB1F621773078407BA0739
:100CF00020F0621B730B840BBA0BEE1F88F7E09594
:100D00000895BCD088F09F5790F0B92F9927B7511C
:100D1000A0F0D1F0660F771F881F991F1AF0BA95BF
:100D2000C9F712C0B13081F0C3D0B1E00895C0C09E
:100D3000672F782F8827B85F39F0B93FCCF38695B5
:100D400077956795B395D9F73EF490958095709512
:100D500061957F4F8F4F9F4F0895E89409C097FB8F
:100D60003EF490958095709561957F4F8F4F9F4F82
:100D70009923A9F0F92F96E9BB279395F6958795C6
:100D800077956795B795F111F8CFFAF4BB0F11F489
:100D900060FF1BC06F5F7F4F8F4F9F4F16C0882330
:100DA00011F096E911C0772321F09EE8872F762F66
:100DB00005C0662371F096E8862F70E060E02AF0A7
:100DC0009A95660F771F881FDAF7880F9695879593
:100DD00097F90895990F0008550FAA0BE0E8FEEF68
:100DE00016161706E807F907C0F012161306E407EF
:100DF000F50798F0621B730B840B950B39F40A26E8
:100E000061F0232B242B252B21F408950A2609F4C5
:100E1000A140A6958FEF811D811D089597F99F67C9
:100E200080E870E060E008959FEF80EC0895002472
:100E30000A941616170618060906089500240A943F
:100E400012161306140605060895092E0394000CC5
:100E500011F4882352F0BB0F40F4BF2B11F460FF54
:100E600004C06F5F7F4F8F4F9F4F089557FD90587D
:100E7000440F551F59F05F3F71F04795880F97FB5E
:100E8000991F61F09F3F79F0879508951216130618
:100E90001406551FF2CF4695F1DF08C01616170647
:100EA0001806991FF1CF869571056105089408957C
:100EB000E894BB2766277727CB0197F908958ADF47
:100EC00008F48FEF08950BD0C0CFB1DF28F0B6DF64
:100ED00018F0952309F0A2CFA7CF1124EACFC6DFDF
:100EE000A0F3959FD1F3950F50E0551F629FF0013D
:100EF000729FBB27F00DB11D639FAA27F00DB11D96
:100F0000AA1F649F6627B00DA11D661F829F22271E
:100F1000B00DA11D621F739FB00DA11D621F839FA5
:100F2000A00D611D221F749F3327A00D611D231F7B
:100F3000849F600D211D822F762F6A2F11249F57C9
:100F400050408AF0E1F088234AF0EE0FFF1FBB1FEC
:100F5000661F771F881F91505040A9F79E3F51058B
:100F600070F05CCFA6CF5F3FECF3983EDCF3869544
:100F700077956795B795F795E7959F5FC1F7FE2B36
:100F8000880F911D9695879597F90895F894FFCF4E
:0A0F9000B036000001000A005A000C
:00000001FF
