S0110000536572766F746573742E7372656344
S113000045C000004BC0000049C0000047C00000CC
S113001045C0000043C0000041C000003FC00000D4
S11300203DC000003BC0000039C0000037C00000E4
S113003035C0000033C0000031C000002FC00000F4
S11300402DC000002BC0000029C0000027C0000004
S113005025C0000023C0000021C000001FC0000014
S11300601DC000001BC0000019C0000017C0000024
S113007015C0000013C0000011C000000FC0000034
S11300800DC000000BC0000009C0000011241FBEF9
S1130090CFEFD0E4DEBFCDBF89D0D5C1B1CF1092B0
S11300A0C5008093C40088E18093C1008EE08093F2
S11300B0C2000895E0EBF0E08081836A8083E1EB85
S11300C0F0E08081826080838081826080831092EE
S11300D0B3001092B40008958EEF8093B300809320
S11300E0B40008958AE082B9F7CF089512B8F4CF26
S11300F008951092B3001092B4000895AC018BB12E
S113010086608BB920E030E00CC09091C00095FF70
S1130110FCCFFA01E20FF31F90819093C6002F5F8A
S11301203F4F2617370788F308950F931F93CF93F4
S1130130DF93CDB7DEB729970FB6F894DEBF0FBEB5
S1130140CDBF8C0180E090E08DD021E73DE34AE50E
S113015050E4EED05BD0272F3327A8014A5D5F4FD0
S1130160FB01FF274E0F5F1F420F531FFA01E0955B
S1130170F0953FEF39833A830B8335E03C8333E0DA
S11301803D833EE13E836F832887E98769E070E021
S1130190CE010196B3DF29960FB6F894DEBF0FBEE9
S11301A0CDBFDF91CF911F910F9108958AE081B95E
S11301B082E082B986EC8AB980E071DF7BDF68EC8B
S11301C070E083E090E0B1DF20EA2A95F1F78ADF5E
S11301D08FEF97EA21E6815090402040E1F700C07C
S11301E0000084DF8FEF93ED20E3815090402040A6
S11301F0E1F700C000007DDF8FEF93ED20E3815035
S113020090402040E1F700C00000E1CF70D088F0BA
S11302109F5790F0B92F9927B751A0F0D1F0660FEE
S1130220771F881F991F1AF0BA95C9F712C0B13009
S113023081F077D0B1E0089574C0672F782F8827B4
S1130240B85F39F0B93FCCF3869577956795B39548
S1130250D9F73EF490958095709561957F4F8F4FB7
S11302609F4F0895E89409C097FB3EF490958095BC
S1130270709561957F4F8F4F9F4F9923A9F0F92F68
S113028096E9BB279395F695879577956795B795E6
S1130290F111F8CFFAF4BB0F11F460FF1BC06F5FCC
S11302A07F4F8F4F9F4F16C0882311F096E911C0DE
S11302B0772321F09EE8872F762F05C0662371F0FF
S11302C096E8862F70E060E02AF09A95660F771F13
S11302D0881FDAF7880F9695879597F9089557FD43
S11302E09058440F551F59F05F3F71F04795880FA0
S11302F097FB991F61F09F3F79F087950895121637
S113030013061406551FF2CF4695F1DF08C01616E2
S113031017061806991FF1CF869571056105089493
S11303200895E894BB2766277727CB0197F90895AA
S11303300BD078C069D028F06ED018F0952309F05E
S11303405AC05FC01124EECFCADFA0F3959FD1F34A
S1130350950F50E0551F629FF001729FBB27F00D6F
S1130360B11D639FAA27F00DB11DAA1F649F6627C4
S1130370B00DA11D661F829F2227B00DA11D621F13
S1130380739FB00DA11D621F839FA00D611D221FCD
S1130390749F3327A00D611D231F849F600D211DB1
S11303A0822F762F6A2F11249F5750408AF0E1F054
S11303B088234AF0EE0FFF1FBB1F661F771F881F9D
S11303C091505040A9F79E3F510570F014C0AACF38
S11303D05F3FECF3983EDCF3869577956795B79588
S11303E0F795E7959F5FC1F7FE2B880F911D9695B2
S11303F0879597F9089597F99F6780E870E060E022
S113040008959FEF80EC089500240A9416161706A9
S113041018060906089500240A94121613061406F1
S113042005060895092E0394000C11F4882352F054
S1130430BB0F40F4BF2B11F460FF04C06F5F7F4F0C
S10D04408F4F9F4F0895F894FFCFEB
S9030000FC
