S0130000417673746E645F746573742E7372656382
S113000086C000001AC1000092C0000090C0000029
S11300108EC000008CC000008AC0000088C00000B0
S113002086C0000084C0000082C0000080C00000C0
S11300307EC000007CC000007AC0000078C00000D0
S113004076C0000074C0000072C0000070C00000E0
S11300506EC000006CC000006AC0000068C00000F0
S113006005C1000064C0000062C0000060C0000060
S11300705EC000005CC000005AC0000058C0000010
S113008056C0000054C0000052C00000076342364E
S1130090B79BD8A71A39685618AEBAAB558C1D3C15
S11300A0B7CC5763BD6DEDFD753EF6177231BF00D9
S11300B00000803F08000000BE922449123EABAA13
S11300C0AA2ABECDCCCC4C3E00000080BEABAAAA6E
S11300D0AA3E00000000BF000000803F00000000B6
S11300E000084178D3BB4387D1133D190E3CC3BDEF
S11300F04282AD2B3E68EC8276BED98FE1A93E4C9C
S113010080EFFFBE01C4FF7F3F0000000000112408
S11301101FBECFEFD0E4DEBFCDBF21E0A0E0B1E051
S113012001C01D92A630B207E1F773D02DC468CF89
S1130130CF93DF93CDB7DEB760970FB6F894DEBFE9
S11301400FBECDBF40E050E01AC067E070E0641B12
S1130150750B282F30E002C0359527956A95E2F794
S113016021703327FA01EE0FFF1F61E070E06C0F7E
S11301707D1FE60FF71F318320834F5F5F4F4830A9
S113018051051CF320E030E080E090E018C0F90154
S1130190EE0FFF1F41E050E04C0F5D1FE40FF51F11
S11301A04081518169E070E0621B730B02C0440F0F
S11301B0551F6A95E2F7840F951F2F5F3F4F283034
S11301C031052CF360960FB6F894DEBF0FBECDBF99
S11301D0DF91CF910895BC01990F880B990B1BD126
S11301E023E333E343EA50E4A2D120E030EC4FE7C9
S11301F054E476D023E333E343E95FE3FBD19B018B
S1130200AC0160E070E088ED91E46AD0D1D0CB011C
S113021008958FEF84B91AB81BB886E680937C00E2
S11302208FE880937A00E9E6F0E080818360808340
S11302308DB381608DBB7894FFCF1F920F920FB660
S11302400F9211240BB60F928F93EF93FF93EAE76B
S1130250F0E0808180648083FF91EF918F910F9013
S11302600BBE0F900FBE0F901F9018951F920F9208
S11302700FB60F9211240BB60F922F933F934F9307
S11302805F936F937F938F939F93AF93BF93EF93FA
S1130290FF938091790085B94BDF9093050180939A
S11302A0040199DF909303018093020184E090E0BC
S11302B090930101809300017894FF91EF91BF9195
S11302C0AF919F918F917F916F915F914F913F91EA
S11302D02F910F900BBE0F900FBE0F901F9018958B
S11302E00CD0EBC0E3D040F0DAD030F021F45F3F23
S11302F019F0CCC0511115C1CFC0F0D098F3992397
S1130300C9F35523B1F3951B550BBB27AA276217D5
S11303107307840738F09F5F5F4F220F331F441F1A
S1130320AA1FA9F333D00E2E3AF0E0E830D0915052
S11303305040E695001CCAF729D0FE2F27D0660F3F
S1130340771F881FBB1F261737074807AB07B0E87E
S113035009F0BB0B802DBF01FF2793585F4F2AF094
S11303609E3F510568F092C0DCC05F3FECF3983EBD
S1130370DCF3869577956795B795F7959F5FC9F7F1
S1130380880F911D9695879597F90895E1E0660F7A
S1130390771F881FBB1F621773078407BA0720F0F3
S11303A0621B730B840BBA0BEE1F88F7E09508955C
S11303B004D06894B111B5C0089598D088F09F57BF
S11303C090F0B92F9927B751A0F0D1F0660F771F9D
S11303D0881F991F1AF0BA95C9F712C0B13081F07D
S11303E09FD0B1E008959CC0672F782F8827B85F0D
S11303F039F0B93FCCF3869577956795B395D9F7DE
S11304003EF490958095709561957F4F8F4F9F4FE7
S11304100895E89409C097FB3EF4909580957095F3
S113042061957F4F8F4F9F4F9923A9F0F92F96E93C
S1130430BB279395F695879577956795B795F111B1
S1130440F8CFFAF4BB0F11F460FF1BC06F5F7F4F4E
S11304508F4F9F4F16C0882311F096E911C0772360
S113046021F09EE8872F762F05C0662371F096E869
S1130470862F70E060E02AF09A95660F771F881F38
S1130480DAF7880F9695879597F9089597F99F67F6
S113049080E870E060E008959FEF80EC0895002408
S11304A00A941616170618060906089500240A94D5
S11304B012161306140605060895092E0394000C5B
S11304C011F4882352F0BB0F40F4BF2B11F460FFEA
S11304D004C06F5F7F4F8F4F9F4F089557FD905813
S11304E0440F551F59F05F3F71F04795880F97FBF4
S11304F0991F61F09F3F79F08795089512161306AE
S11305001406551FF2CF4695F1DF08C016161706DC
S11305101806991FF1CF8695710561050894089511
S1130520E894BB2766277727CB0197F908950BD06A
S1130530C4CFB5DF28F0BADF18F0952309F0A6CFB1
S1130540ABCF1124EECFCADFA0F3959FD1F3950F63
S113055050E0551F629FF001729FBB27F00DB11D43
S1130560639FAA27F00DB11DAA1F649F6627B00DD3
S1130570A11D661F829F2227B00DA11D621F739FBC
S1130580B00DA11D621F839FA00D611D221F749FCA
S11305903327A00D611D231F849F600D211D822F11
S11305A0762F6A2F11249F5750408AF0E1F0882358
S11305B04AF0EE0FFF1FBB1F661F771F881F915065
S11305C05040A9F79E3F510570F060CFAACF5F3F1E
S11305D0ECF3983EDCF3869577956795B795F79598
S11305E0E7959F5FC1F7FE2B880F911D9695879520
S11305F097F90895FA01EE0FFF1F30962105310592
S113060099F16115710561F48038BFE39B0749F1E5
S113061068949038810561F08038BFEF9B0741F002
S1130620992342F5FF3FE1053105210511F1E894D5
S11306300894E795D901AA2329F4AB2FBE2FF85FBC
S1130640D0F310C0FF5F70F4A695E0F7F73950F0CF
S113065019F0FF3A38F49F779F930CD00F9007FC62
S1130660905808953EF018CF60E070E080E89FE372
S113067008954FE79F775F934F933F932F939ED0B7
S11306802F913F914F915F9152DF05C019F40EF005
S1130690FDCE46CF01CF2ADFC8F39638C0F707F85E
S11306A00F92E8942BE33AEA48EB5FE74EDF0F92B0
S11306B00F920F924DB75EB70F92C0D0ECE8F0E006
S11306C016D04F915F91EF91FF91E595EE1FFF1FBB
S11306D049F0FE57E0684427EE0F441FFA95E1F70E
S11306E04195550B32D00F9007FE26C00895DF9335
S11306F0CF931F930F93FF92EF92DF927B018C01B4
S1130700689405C0DA2EEF011EDFFE01E894A5917E
S11307102591359145915591AEF3EF01D4D0FE0169
S11307209701A801DA9479F7DF90EF90FF900F9189
S11307301F91CF91DF9108959B01AC0160E070E0BF
S113074080E89FE3CDCDA2CE11C1D0DEE8F399239A
S1130750D9F3940F511DBBF39150504094F059F0CC
S1130760882332F0660F771F881F91505040C1F7DD
S11307709E3F510544F7880F911D9695879597F9EB
S113078008955F3FACF0983E9CF0BB278695779523
S11307906795B79508F4B1609395C1F7BB0F58F707
S11307A011F460FFE8CF6F5F7F4F8F4F9F4FE3CF10
S11307B0B8CE0EF0DBC070CE689468CE97DEC8F376
S11307C09923D1F3C6F3DF93CF931F930F93FF9233
S11307D0C92FDD2788232AF02197660F771F881FEA
S11307E0DAF720E030E040E85FEB9FE3883920F05F
S11307F0803E30F021968F7755D0E4EBF0E003C0D3
S113080051D0E1EEF0E073DF8B01BE01EC01FB2E71
S11308106F5771097595771F880B990BFCDD28E1DB
S113082032E741E35FE38FDEAF2D9801AE01FF9025
S11308300F911F91CF91DF9146D03FCEFA01DC0199
S1130840AA0FBB1F9B01AC01BF5728F422273327F3
S1130850442750781FC0B75188F4AB2F0024469525
S113086037952795011CA395D2F3002069F0220F38
S1130870331F441FB395DAF30DD013C061307105F3
S1130880A0E88A07B94630F49B01AC0166277727B4
S113089088279078309621F02083318342835383D4
S11308A008955058BB27AA270ED007CEF8DD30F0A4
S11308B0FDDD20F031F49F3F11F41EF4EDCD0EF474
S11308C0E095E7FBE3CDE92F09DE80F3BA17620771
S11308D073078407950718F071F49EF521CE0EF482
S11308E0E0950B2EBA2FA02D0B01B90190010C013C
S11308F0CA01A0011124FF27591B99F0593F50F454
S1130900503E68F11A16F040A22F232F342F4427AB
S1130910585FF3CF469537952795A795F0405395A3
S1130920C9F77EF41F16BA0B620B730B840BBAF073
S11309309150A1F0FF0FBB1F661F771F881FC2F7DE
S11309400EC0BA0F621F731F841F48F487957795F2
S11309506795B795F7959E3F08F0B3CF9395880FA9
S113096008F09927EE0F9795879508959F3F31F0EA
S1130970915020F4879577956795B795880F911DC9
S10F09809695879597F90895F894FFCF99
S9030000FC
