:1000000045C0000053C0000051C000004FC00000B8
:100010004DC000004BC0000049C0000047C00000B8
:1000200045C0000043C0000041C000003FC00000C8
:100030003DC000003BC0000039C0000037C00000D8
:1000400035C0000033C0000031C0000036C00000E1
:100050002DC000002BC0000029C0000027C00000F8
:1000600025C0000023C0000021C000001FC0000008
:100070001DC000001BC0000019C0000017C0000018
:1000800015C0000013C0000011C0000011241FBEE5
:10009000CFEFD0E4DEBFCDBF21E0A0E0B1E001C0F2
:1000A0001D92A130B207E1F71DD020C0A9CF80E496
:1000B00084B980EC8CBD789408951F920F920FB68E
:1000C0000F9211248F938EB58093000180910001CF
:1000D0008EBD0DB407FEFDCF8F910F900FBE0F9018
:1000E0001F901895E4DF81E081B9FFCFF894FFCF2E
:00000001FF
